{
  "_format": "hh-sol-artifact-1",
  "contractName": "FileRegistry",
  "sourceName": "contracts/FileRegistry.sol",
  "abi": [
    {
      "anonymous": false,
      "inputs": [
        {
          "indexed": true,
          "internalType": "bytes32",
          "name": "fileHash",
          "type": "bytes32"
        },
        {
          "indexed": true,
          "internalType": "address",
          "name": "uploader",
          "type": "address"
        },
        {
          "indexed": false,
          "internalType": "uint256",
          "name": "timestamp",
          "type": "uint256"
        },
        {
          "indexed": false,
          "internalType": "string",
          "name": "gridFsId",
          "type": "string"
        },
        {
          "indexed": false,
          "internalType": "string",
          "name": "metadata",
          "type": "string"
        }
      ],
      "name": "FileUploaded",
      "type": "event"
    },
    {
      "inputs": [
        {
          "internalType": "uint256",
          "name": "",
          "type": "uint256"
        }
      ],
      "name": "fileHashes",
      "outputs": [
        {
          "internalType": "bytes32",
          "name": "",
          "type": "bytes32"
        }
      ],
      "stateMutability": "view",
      "type": "function"
    },
    {
      "inputs": [
        {
          "internalType": "bytes32",
          "name": "",
          "type": "bytes32"
        }
      ],
      "name": "files",
      "outputs": [
        {
          "internalType": "address",
          "name": "uploader",
          "type": "address"
        },
        {
          "internalType": "uint256",
          "name": "timestamp",
          "type": "uint256"
        },
        {
          "internalType": "string",
          "name": "gridFsId",
          "type": "string"
        },
        {
          "internalType": "string",
          "name": "metadata",
          "type": "string"
        }
      ],
      "stateMutability": "view",
      "type": "function"
    },
    {
      "inputs": [],
      "name": "getAuditTrail",
      "outputs": [
        {
          "internalType": "bytes32[]",
          "name": "",
          "type": "bytes32[]"
        }
      ],
      "stateMutability": "view",
      "type": "function"
    },
    {
      "inputs": [
        {
          "internalType": "bytes32",
          "name": "fileHash",
          "type": "bytes32"
        },
        {
          "internalType": "string",
          "name": "gridFsId",
          "type": "string"
        },
        {
          "internalType": "string",
          "name": "metadata",
          "type": "string"
        }
      ],
      "name": "logFileUpload",
      "outputs": [],
      "stateMutability": "nonpayable",
      "type": "function"
    },
    {
      "inputs": [
        {
          "internalType": "bytes32",
          "name": "fileHash",
          "type": "bytes32"
        }
      ],
      "name": "verifyFile",
      "outputs": [
        {
          "internalType": "bool",
          "name": "exists",
          "type": "bool"
        },
        {
          "internalType": "address",
          "name": "uploader",
          "type": "address"
        },
        {
          "internalType": "uint256",
          "name": "timestamp",
          "type": "uint256"
        },
        {
          "internalType": "string",
          "name": "gridFsId",
          "type": "string"
        },
        {
          "internalType": "string",
          "name": "metadata",
          "type": "string"
        }
      ],
      "stateMutability": "view",
      "type": "function"
    }
  ],
  "bytecode": "0x608060405234801561001057600080fd5b50610fdc806100206000396000f3fe608060405234801561001057600080fd5b50600436106100575760003560e01c80632fcc27a41461005c57806337bc1a551461007a5780634b67d54b1461009657806398c9adff146100ca578063c110f4c9146100fd575b600080fd5b61006461012d565b604051610071919061078c565b60405180910390f35b610094600480360381019061008f9190610934565b610185565b005b6100b060048036038101906100ab91906109bf565b610327565b6040516100c1959493929190610ae0565b60405180910390f35b6100e460048036038101906100df91906109bf565b610540565b6040516100f49493929190610b41565b60405180910390f35b61011760048036038101906101129190610bc0565b6106a0565b6040516101249190610bfc565b60405180910390f35b6060600180548060200260200160405190810160405280929190818152602001828054801561017b57602002820191906000526020600020905b815481526020019060010190808311610167575b5050505050905090565b600080600085815260200190815260200160002060010154146101dd576040517f08c379a00000000000000000000000000000000000000000000000000000000081526004016101d490610c63565b60405180910390fd5b60405180608001604052803373ffffffffffffffffffffffffffffffffffffffff1681526020014281526020018381526020018281525060008085815260200190815260200160002060008201518160000160006101000a81548173ffffffffffffffffffffffffffffffffffffffff021916908373ffffffffffffffffffffffffffffffffffffffff16021790555060208201518160010155604082015181600201908161028c9190610e8f565b5060608201518160030190816102a29190610e8f565b5090505060018390806001815401808255809150506001900390600052602060002001600090919091909150553373ffffffffffffffffffffffffffffffffffffffff16837fa1cb4f9039349a4dc267b434edd86ebcb4d1e61a2e5d467f4e305064eb0fd1fd42858560405161031a93929190610f61565b60405180910390a3505050565b600080600060608060008060008881526020019081526020016000206040518060800160405290816000820160009054906101000a900473ffffffffffffffffffffffffffffffffffffffff1673ffffffffffffffffffffffffffffffffffffffff1673ffffffffffffffffffffffffffffffffffffffff168152602001600182015481526020016002820180546103be90610cb2565b80601f01602080910402602001604051908101604052809291908181526020018280546103ea90610cb2565b80156104375780601f1061040c57610100808354040283529160200191610437565b820191906000526020600020905b81548152906001019060200180831161041a57829003601f168201915b5050505050815260200160038201805461045090610cb2565b80601f016020809104026020016040519081016040528092919081815260200182805461047c90610cb2565b80156104c95780601f1061049e576101008083540402835291602001916104c9565b820191906000526020600020905b8154815290600101906020018083116104ac57829003601f168201915b5050505050815250509050600081602001510361051557600080600060405180602001604052806000815250604051806020016040528060008152509550955095509550955050610537565b6001816000015182602001518360400151846060015195509550955095509550505b91939590929450565b60006020528060005260406000206000915090508060000160009054906101000a900473ffffffffffffffffffffffffffffffffffffffff169080600101549080600201805461058f90610cb2565b80601f01602080910402602001604051908101604052809291908181526020018280546105bb90610cb2565b80156106085780601f106105dd57610100808354040283529160200191610608565b820191906000526020600020905b8154815290600101906020018083116105eb57829003601f168201915b50505050509080600301805461061d90610cb2565b80601f016020809104026020016040519081016040528092919081815260200182805461064990610cb2565b80156106965780601f1061066b57610100808354040283529160200191610696565b820191906000526020600020905b81548152906001019060200180831161067957829003601f168201915b5050505050905084565b600181815481106106b057600080fd5b906000526020600020016000915090505481565b600081519050919050565b600082825260208201905092915050565b6000819050602082019050919050565b6000819050919050565b610703816106f0565b82525050565b600061071583836106fa565b60208301905092915050565b6000602082019050919050565b6000610739826106c4565b61074381856106cf565b935061074e836106e0565b8060005b8381101561077f5781516107668882610709565b975061077183610721565b925050600181019050610752565b5085935050505092915050565b600060208201905081810360008301526107a6818461072e565b905092915050565b6000604051905090565b600080fd5b600080fd5b6107cb816106f0565b81146107d657600080fd5b50565b6000813590506107e8816107c2565b92915050565b600080fd5b600080fd5b6000601f19601f8301169050919050565b7f4e487b7100000000000000000000000000000000000000000000000000000000600052604160045260246000fd5b610841826107f8565b810181811067ffffffffffffffff821117156108605761085f610809565b5b80604052505050565b60006108736107ae565b905061087f8282610838565b919050565b600067ffffffffffffffff82111561089f5761089e610809565b5b6108a8826107f8565b9050602081019050919050565b82818337600083830152505050565b60006108d76108d284610884565b610869565b9050828152602081018484840111156108f3576108f26107f3565b5b6108fe8482856108b5565b509392505050565b600082601f83011261091b5761091a6107ee565b5b813561092b8482602086016108c4565b91505092915050565b60008060006060848603121561094d5761094c6107b8565b5b600061095b868287016107d9565b935050602084013567ffffffffffffffff81111561097c5761097b6107bd565b5b61098886828701610906565b925050604084013567ffffffffffffffff8111156109a9576109a86107bd565b5b6109b586828701610906565b9150509250925092565b6000602082840312156109d5576109d46107b8565b5b60006109e3848285016107d9565b91505092915050565b60008115159050919050565b610a01816109ec565b82525050565b600073ffffffffffffffffffffffffffffffffffffffff82169050919050565b6000610a3282610a07565b9050919050565b610a4281610a27565b82525050565b6000819050919050565b610a5b81610a48565b82525050565b600081519050919050565b600082825260208201905092915050565b60005b83811015610a9b578082015181840152602081019050610a80565b60008484015250505050565b6000610ab282610a61565b610abc8185610a6c565b9350610acc818560208601610a7d565b610ad5816107f8565b840191505092915050565b600060a082019050610af560008301886109f8565b610b026020830187610a39565b610b0f6040830186610a52565b8181036060830152610b218185610aa7565b90508181036080830152610b358184610aa7565b90509695505050505050565b6000608082019050610b566000830187610a39565b610b636020830186610a52565b8181036040830152610b758185610aa7565b90508181036060830152610b898184610aa7565b905095945050505050565b610b9d81610a48565b8114610ba857600080fd5b50565b600081359050610bba81610b94565b92915050565b600060208284031215610bd657610bd56107b8565b5b6000610be484828501610bab565b91505092915050565b610bf6816106f0565b82525050565b6000602082019050610c116000830184610bed565b92915050565b7f46696c6520616c7265616479206c6f6767656400000000000000000000000000600082015250565b6000610c4d601383610a6c565b9150610c5882610c17565b602082019050919050565b60006020820190508181036000830152610c7c81610c40565b9050919050565b7f4e487b7100000000000000000000000000000000000000000000000000000000600052602260045260246000fd5b60006002820490506001821680610cca57607f821691505b602082108103610cdd57610cdc610c83565b5b50919050565b60008190508160005260206000209050919050565b60006020601f8301049050919050565b600082821b905092915050565b600060088302610d457fffffffffffffffffffffffffffffffffffffffffffffffffffffffffffffffff82610d08565b610d4f8683610d08565b95508019841693508086168417925050509392505050565b6000819050919050565b6000610d8c610d87610d8284610a48565b610d67565b610a48565b9050919050565b6000819050919050565b610da683610d71565b610dba610db282610d93565b848454610d15565b825550505050565b600090565b610dcf610dc2565b610dda818484610d9d565b505050565b5b81811015610dfe57610df3600082610dc7565b600181019050610de0565b5050565b601f821115610e4357610e1481610ce3565b610e1d84610cf8565b81016020851015610e2c578190505b610e40610e3885610cf8565b830182610ddf565b50505b505050565b600082821c905092915050565b6000610e6660001984600802610e48565b1980831691505092915050565b6000610e7f8383610e55565b9150826002028217905092915050565b610e9882610a61565b67ffffffffffffffff811115610eb157610eb0610809565b5b610ebb8254610cb2565b610ec6828285610e02565b600060209050601f831160018114610ef95760008415610ee7578287015190505b610ef18582610e73565b865550610f59565b601f198416610f0786610ce3565b60005b82811015610f2f57848901518255600182019150602085019450602081019050610f0a565b86831015610f4c5784890151610f48601f891682610e55565b8355505b6001600288020188555050505b505050505050565b6000606082019050610f766000830186610a52565b8181036020830152610f888185610aa7565b90508181036040830152610f9c8184610aa7565b905094935050505056fea26469706673582212201dacf87f9e879c1bb5e61f62867bc82b512882c49cd6e4469410acdabddba0ac64736f6c63430008140033",
  "linkReferences": {},
  "deployedLinkReferences": {}
}